:0C0394003F065B4F666D7D077F6F4000E9
:0C038800120372AF20AE1F1202E080F7DB
:0B03AC00EF1FAC0670011E4C70F62223
:1002E0007B007A00790812024BE4FBFAEA7053EBC8
:1002F000B40800504D9002FCF82828730203140241
:10030000031802032002032402032C020330020319
:100310003802033CC2A28002D2A2C2A3C2A480229D
:10032000C2A28002D2A2D2A3C2A48016C2A280021C
:10033000D2A2C2A3D2A4800AC2A28002D2A2D2A315
:10034000D2A4EB25E02408F8E6FE08E62494F58222
:1003500074033EF583E493F5807F647E001203AC62
:10036000E4F5800BBB00010AEB64084A600302025B
:01037000ECA0
:010371002269
:0A024B008E188F198B1A8A1B891C6C
:10025500C3E51864809480501790000EE475F00A89
:100265001201BBC3E49519F519E49518F518802515
:10027500AC18AD19EC1200CB7B807A967918784BC7
:10028500120029120104AB1AAA1BA91C90000EEE3C
:100295008FF01201BBE4F51DF51EAE18AF197C00F9
:1002A5007D0A120185E51E25E0FFE51D33AB1AAA7F
:1002B5001BA91C8F82F583EC8DF01201BBAE18AF24
:1002C500197C007D0A1201858E188F19051EE51E01
:0A02D5007002051D6407451D70C08E
:0102DF0022FC
:10037200758920758DF3758BF3758780D28E75988C
:0603820050D2ACD2AF2204
:03002300020003D5
:10000300C0D075D000C007AF99751F008F20C2986C
:0D0013008520993099FDC299D007D0D032D8
:1000260002017AEC5D046005E85904700302017070
:1000360012013B580460F6EC4860F2EC7004FDFED9
:10004600FF22C860DB2481C85009C39860025006AD
:100056000201779850CAF582E9294B4A7005AB82AE
:1000660002016675F0007C1A7880C3EF9BEE9AED6C
:1000760099400DC3EF9BFFEE9AFEED99FDE842F025
:10008600DC23ACF0D0E0FFD0E0FED0E0FDAB822078
:10009600E7101BEB60BAEC2CFCEF33FFEE33FEED02
:1000A60033FD020152E803F830E705C0F075F000B1
:1000B600EF2FFFEE33FEED33FD40B830E7C280AAE6
:1000C60075F020800E75F010800575F0087D007EB5
:1000D600007F003392D530D5031201E8EC3340108F
:1000E600EF33FFEE33FEED33FDEC33FCD5F0ED22BE
:0E00F600E5F0247EA2D513CC92E7CDCEFF22FA
:10010400EDD2E7CD33EC3392D524814006E4FFFEF3
:10011400FDFC22FCE4CFCECDCC24E0501174FF8052
:10012400EDC3CC13CCCD13CDCE13CECF13CF0470EF
:07013400F030D5DE0201E806
:10013B00E9D2E7C933E833F892D5EDD2E7CD33EC0A
:07014B0033FC5002B2D52283
:10015200EC30E7100FBF000C0EBE00080DBD00040E
:100162000BEB6014A2D5EB13FCED92E7FD2274FFBA
:10017200FCFDFEFF22E480F8A2D574FF13FC7D8013
:03018200E480EF27
:030000000203A058
:0C03A000787FE4F6D8FD75812002038808
:10018500C2D5EC30E709B2D5E4C39DFDE49CFCEE95
:1001950030E715B2D5E4C39FFFE49EFE1201F6C316
:1001A500E49DFDE49CFC80031201F630D507C3E411
:0601B5009FFFE49EFE2204
:1001BB00F8BB0111E58229F582E5833AF583E8F076
:1001CB00E5F0A3F0225009E92582C8F608A6F02233
:0D01DB00BBFE09E92582C8F2E5F008F2221A
:0E01E800C3E49FFFE49EFEE49DFDE49CFC2228
:1001F600BC000BBE0029EF8DF084FFADF022E4CCED
:10020600F875F008EF2FFFEE33FEEC33FCEE9DECB5
:10021600984005FCEE9DFE0FD5F0E9E4CEFD22EDFB
:10022600F8F5F0EE8420D21CFEADF075F008EF2F45
:10023600FFED33FD4007985006D5F0F222C398FD36
:050246000FD5F0EA22D3
:00000001FF
