:03000000020224D5
:0C022400787FE4F6D8FD75811B02026BA8
:0C048E003F065B4F666D7D077F6F4040AE
:1004250002140000020C0000060E0000000000008F
:100435000218000002080000020A0000021600006F
:1004460012047A1204B1A2A0B392A1E5094508608C
:0B045600051203C680F012019080EB3D
:10047A00758901758CDCE4F58AD2AFD2A9D28CF5E4
:04048A000EF50F223A
:03000B000200DA16
:1000DA00C0E0C0F0C083C082C0D075D000C000C0EC
:1000EA0001C002C003C004C005C006C007758CDC8D
:1000FA00758A000515E51570020514050DE50D70E4
:10010A0002050C6464450C704EE5096401450870EB
:10011A0040E50F450E7032E5114510600AE51115EC
:10012A0011701815108014E51345126016E51315A1
:10013A00137002151275100075113B750E00750FBC
:10014A003C8006750800750900E50F150F70021549
:10015A000E750C00750D00E51564024514700C123D
:10016A0002B012000E751400751500D007D006D023
:10017A0005D004D003D002D001D000D0D0D082D094
:06018A0083D0F0D0E0324A
:0704B100D2AFD2A8D28822CD
:0300030002046193
:10046100758CDC758A00750E00750F0075100075AE
:0904710011007512007513003230
:0B04A600EF1FAC0670011E4C70F62228
:10000E00E4FBFAEA60030200B1EBB408004003021D
:10001E0000B1900027F828287302003F02004B021F
:10002E00005702005F02006B02007702008502009B
:10003E009CC2A2C2A3C2A4AE0EAF0F8044D2A2C273
:10004E00A3C2A4AE0EAF0F804FC2A2D2A3C2A48091
:10005E001ED2A2D2A3C2A4AE10AF118024C2A2C2DD
:10006E00A3D2A4AE10AF11802FD2A2C2A3D2A47578
:10007E001A00751B0B802CC2A2D2A3D2A4AE12AF53
:10008E00137C007D0A12033B8C1A8D1B8015D2A2A5
:10009E00D2A3D2A4AE12AF137C007D0A12033B8E04
:1000AE001A8F1B748E251BF5827404351AF583E4A2
:1000BE0093F5807F327E001204A6E4F5800BBB0020
:0B00CE00010AEB64084A600302001105
:0100D9002204
:1002B00075900FE590640F607CB2957FE87E031225
:1002C00004A6B295E590640F607075900FAF90EF43
:1002D00024F5601224FE601614601B2407701DE4D0
:1002E000F50AF50B8016750A00750B01800E750A6C
:1002F00000750B028006750A00750B037590F0AF50
:1003000090EF2450601424E0601424F060142470F2
:10031000701B850A0A850B0B801374048006740811
:100320008002740C250BF50BE4350AF50AE59064A0
:0B033000F0600780F8E4F50AF50B22EE
:1003C600E51145107006E513451260067E007F01B3
:1003D60080047E007F00EF4E701CC3E50F9405E598
:1003E6000E64809480500FE4FDB2957F647E001207
:1003F60004A60DBD64F3E50F450E700CE51145101E
:100406007006E513451260067E007F0180047E00BB
:0E0416007F00EF4E7008F508F509B2A1B2A004
:0104240022B5
:10019000E50A600302021EE50B14604124FD6018AD
:1001A00024FE601F24FD604524FA606B240A706EF3
:1001B0007508007509018066E5172401FFE435160E
:1001C000FE800DE51724FFFFE51634FFFE12049AAA
:1001D0007C007D0312033B8C168D178041E51725AB
:1001E000E0240EF80806E6187034068031E517257D
:1001F000E0240EF8E6FE08E624FFFFEE34FFFE12D0
:10020000049A7C007D6412033BE51725E0240EF878
:10021000A60408A6058007B2A0A2A0B392A1E4F5A7
:040220000AF50B22AE
:10023000020446E493A3F8E493A34003F68001F29A
:1002400008DFF48029E493A3F85407240CC8C333CF
:10025000C4540F4420C8834004F456800146F6DF9E
:10026000E4800B0102040810204080900425E47E05
:10027000019360BCA3FF543F30E509541FFEE49393
:10028000A360010ECF54C025E060A840B8E493A35A
:10029000FAE493A3F8E493A3C8C582C8CAC583CA85
:1002A000F0A3C8C582C8CAC583CADFE9DEE780BE3D
:0104450000B6
:10033B00C2D5EC30E709B2D5E4C39DFDE49CFCEEDD
:10034B0030E715B2D5E4C39FFFE49EFE120371C3E1
:10035B00E49DFDE49CFC800312037130D507C3E4DC
:06036B009FFFE49EFE224C
:0C049A00EE30E707C3E49FFFE49EFE2263
:10037100BC000BBE0029EF8DF084FFADF022E4CC70
:10038100F875F008EF2FFFEE33FEEC33FCEE9DEC39
:10039100984005FCEE9DFE0FD5F0E9E4CEFD22ED7F
:1003A100F8F5F0EE8420D21CFEADF075F008EF2FC9
:1003B100FFED33FD4007985006D5F0F222C398FDBA
:0503C1000FD5F0EA2257
:00000001FF
