:0C025000C050040A400000440009800077
:10023F0012022DC2A212000E7FA07E8612026880CB
:01024F00F4BA
:0B026800EF1FAC0670011E4C70F62268
:10022D00438902758AF3758CF3D2B9C28CD2A9D2E7
:02023D00AF22EE
:03000B00020003ED
:03000300B2A23274
:0901FF00F8E6FEEE5480FE7F00DC
:10020800AB07AA06758AF3758CF3D28C7F217E0022
:10021800120268C28CEB4A60047FAA80027F2E7E9D
:05022800001202682233
:10000E0078087C007D007BFF7A0279507E007F06A7
:10001E001201D9780E7C007D007BFF7A0279567E24
:10002E00007F061201D9758AF3758CF3D28C7FD6B8
:10003E007E01120268C28C7FF47E0112026890006B
:10004E0000E4F514F515AF82EF25E024081201FF48
:10005E00AF82EF25E02408F8C000E6FE08E625E0B2
:10006E00FFEE33D000F608A6070515E5157002055C
:10007E0014C39410E5146480948040CAA3E582648E
:10008E0002458370BCE4F583F582E50C120203E5AC
:10009E000D25E0F50DE50C33F50CA3E58264044562
:1000AE008370E77F987E08120268E4F583F582E498
:1000BE00F514F515AF82EF25E0240E1201FFAF8285
:1000CE00EF25E0240EF8C000E6FE08E625E0FFEE80
:1000DE0033D000F608A6070515E51570020514C302
:1000EE009410E5146480948040CAA3E582640245AE
:0A00FE008370BCE512120203C28CED
:0101080022D4
:0300000002025C9D
:0C025C00787FE4F6D8FD75811502023FA2
:10010900E709F608DFFA8046E709F208DFFA803ED8
:1001190088828C83E709F0A3DFFA8032E309F608C5
:10012900DFFA8078E309F208DFFA807088828C832D
:10013900E309F0A3DFFA806489828A83E0A3F608E1
:10014900DFFA805889828A83E0A3F208DFFA804CBB
:1001590080D280FA80C680D4806980F28033801092
:1001690080A680EA809A80A880DA80E280CA8033FB
:1001790089828A83ECFAE493A3C8C582C8CCC58373
:10018900CCF0A3C8C582C8CCC583CCDFE9DEE78043
:100199000D89828A83E493A3F608DFF9ECFAA9F0C2
:1001A900EDFB2289828A83ECFAE0A3C8C582C8CC18
:1001B900C583CCF0A3C8C582C8CCC583CCDFEADE31
:1001C900E880DB89828A83E493A3F208DFF980CC93
:1001D90088F0EF60010E4E60C388F0ED2402B4048C
:1001E9000050B9F582EB2402B4040050AF23234533
:0601F900822390015973FE
:00000001FF
