:1000DD00080800003E4141413E0008107FBFDFEFA0
:0400ED00F7FBFDFE22
:10008F00E4F51874102518F8E6F58074082518F8AB
:10009F00E6FF1200BB7F647E001200F2E4FF120045
:0C00AF00BB0518E518C3940840D980D4A4
:0B00F200EF1FAC0670011E4C70F622E0
:1000BB00E4FEC2B6C2B5EFC4131313540124FF926E
:1000CB00B4EF25E0FFD2B6C2B60EBE08E9D2B5C278
:0100DB00B56F
:0100DC002201
:03000000020003F8
:0C000300787FE4F6D8FD75811802004AF1
:10000F0002008FE493A3F8E493A34003F68001F278
:10001F0008DFF48029E493A3F85407240CC8C333F2
:10002F00C4540F4420C8834004F456800146F6DFC1
:10003F00E4800B01020408102040809000DDE47E74
:10004F00019360BCA3FF543F30E509541FFEE493B6
:10005F00A360010ECF54C025E060A840B8E493A37D
:10006F00FAE493A3F8E493A3C8C582C8CAC583CAA8
:10007F00F0A3C8C582C8CAC583CADFE9DEE780BE60
:0100F100000E
:00000001FF
