:0C0532003F065B4F666D7D077F6F400049
:0D0525007FCD7ECC7D8C7C3F12032E80F3B9
:0B054A00EF1FAC0670011E4C70F62283
:100493007B007A0079231203FEE4FBFAEA7053EB44
:1004A300B40800504D9004AFF82828730204C70223
:1004B30004CB0204D30204D70204DF0204E30204E0
:1004C300EB0204EFC2A28002D2A2C2A3C2A4802282
:1004D300C2A28002D2A2D2A3C2A48016C2A2800268
:1004E300D2A2C2A3D2A4800AC2A28002D2A2D2A361
:1004F300D2A4EB25E02423F8E6FE08E62432F582B5
:1005030074053EF583E493F5807F647E0012054A0B
:10051300E4F5800BBB00010AEB64084A60030204A4
:010523009F38
:0105240022B4
:08032E008F0B8E0A8D098C086B
:10033600E4FFFE7DC87C42AB0BAA0AA909A80812F5
:1003460000031201E77B007A00790C1203FEE4FB3E
:10035600FAEA7053EBB40800504D900367F828286A
:100366007302037F02038302038B02038F02039748
:1003760002039B0203A30203A7C2A28002D2A2C267
:10038600A3C2A48022C2A28002D2A2D2A3C2A48007
:1003960016C2A28002D2A2C2A3D2A4800AC2A2809E
:1003A60002D2A2D2A3D2A4EB64024A701BEB25E0D0
:1003B600240CF8E6FE08E62432F58274053EF58341
:1003C600E4932480F5808017EB25E0240CF8E6FE04
:1003D60008E62432F58274053EF583E493F5807FC2
:1003E600647E0012054AE4F5800BBB00010AEB644B
:0703F600084A6003020357EF
:0103FD0022DD
:0A03FE008E1C8F1D8B1E8A1F8920A4
:10040800C3E51C64809480501790000EE475F00AD0
:1004180012029EC3E4951DF51DE4951CF51C80256C
:10042800AC1CAD1DEC1201AE7B807A967918784B26
:1004380012010C1201E7AB1EAA1FA92090000EEEB4
:100448008FF012029EE4F521F522AE1CAF1D7C0050
:100458007D0A120268E52225E0FFE52133AB1EAADA
:100468001FA9208F82F583EC8DF012029EAE1CAF7F
:100478001D7C007D0A1202688E1C8F1D0522E52254
:0A048800700205216407452170C0D1
:010492002247
:10000300EC4D6011E8497017ED33EC3304600DE4F7
:10001300FCFFFEFD22E933E8330470F802025312B9
:10002300021E58046009E4CC2481500628500902BA
:10003300025D28400302025AC0E0EB4A7044B980D3
:1000430006D0E0FB020249EF4E701CBD8008EBFFB7
:10005300EAFEE9FD80EBE98DF0A4FEE5F00200EC99
:10006300E9CDF9EAFEEBFFEF89F0A4FCE5F0CE89D8
:10007300F0A42EFFE435F0CD89F0A42DFEE435F095
:100083008067EF4E7005BD80D780C3EF8BF0A4ACC3
:10009300F0EE8BF0A42CFCE435F0F8EF8AF0A42CFE
:1000A300E5F038FCE433CB8DF0A42CFCE5F03BF811
:1000B300EE8AF0A42CFCE5F038F8E433CF89F0A401
:1000C3002CFCE5F038CF3400CE89F0A42FFFE5F007
:1000D3003EFEE433C98DF0A42EFEE5F039CD8AF05F
:1000E300A42FFFE5F03EFEE43DFD33D0E0FB5007D7
:1000F3000BBB000F02025DEC2CFCEF33FFEE33FE73
:06010300ED33FD020235A0
:1001090002025DEC5D046005E859047003020253C4
:1001190012021E580460F6EC4860F2EC7004FDFE11
:10012900FF22C860DB2481C85009C39860025006C9
:1001390002025A9850CAF582E9294B4A7005AB82E6
:1001490002024975F0007C1A7880C3EF9BEE9AEDA4
:1001590099400DC3EF9BFFEE9AFEED99FDE842F041
:10016900DC23ACF0D0E0FFD0E0FED0E0FDAB822094
:10017900E7101BEB60BAEC2CFCEF33FFEE33FEED1E
:1001890033FD020235E803F830E705C0F075F000E9
:10019900EF2FFFEE33FEED33FD40B830E7C280AA02
:1001A90075F020800E75F010800575F0087D007ED1
:1001B900007F003392D530D5031202CBEC334010C7
:1001C900EF33FFEE33FEED33FDEC33FCD5F0ED22DA
:0E01D900E5F0247EA2D513CC92E7CDCEFF2216
:1001E700EDD2E7CD33EC3392D524814006E4FFFE10
:1001F700FDFC22FCE4CFCECDCC24E0501174FF806F
:10020700EDC3CC13CCCD13CDCE13CECF13CF04700B
:07021700F030D5DE0202CB3E
:10021E00E9D2E7C933E833F892D5EDD2E7CD33EC26
:07022E0033FC5002B2D5229F
:10023500EC30E7100FBF000C0EBE00080DBD00042A
:100245000BEB6014A2D5EB13FCED92E7FD2274FFD6
:10025500FCFDFEFF22E480F8A2D574FF13FC7D802F
:03026500E480EF43
:0300000002053EB8
:0C053E00787FE4F6D8FD758132020525B7
:10026800C2D5EC30E709B2D5E4C39DFDE49CFCEEB1
:1002780030E715B2D5E4C39FFFE49EFE1202D9C34E
:10028800E49DFDE49CFC80031202D930D507C3E449
:060298009FFFE49EFE2220
:10029E00F8BB0111E58229F582E5833AF583E8F092
:1002AE00E5F0A3F0225009E92582C8F608A6F0224F
:0D02BE00BBFE09E92582C8F2E5F008F22236
:0E02CB00C3E49FFFE49EFEE49DFDE49CFC2244
:1002D900BC000BBE0029EF8DF084FFADF022E4CC09
:1002E900F875F008EF2FFFEE33FEEC33FCEE9DECD2
:1002F900984005FCEE9DFE0FD5F0E9E4CEFD22ED18
:10030900F8F5F0EE8420D21CFEADF075F008EF2F61
:10031900FFED33FD4007985006D5F0F222C398FD52
:050329000FD5F0EA22EF
:00000001FF
