:0300000002037187
:0C037100787FE4F6D8FD75810B0203458F
:0B036000D28112036B12036B12036BBF
:05036B00007F7ADFFEB7
:01037000226A
:07037D00AE071FEE70FA222B
:10032000E4FDFC120360C281E4FBFA12036B0BBB19
:1003300000010AEB644C4A70F20DBD00010CED6443
:04034000144C70DF0A
:010344002296
:1002F500E4FDFC12036012036B12036BC281E4FB85
:10030500FA12036B0BBB00010AEB644A4A70F20D4B
:0A031500BD00010CED64144C70D91A
:01031F0022BB
:1001E800E4FDFC75900FE590640F700302028B7FAD
:1001F800E812037DE590640F700302028575900F85
:10020800AF90EF24F5601224FE601614601B2407DB
:10021800701DE4F508F50980167508007509018058
:100228000E750800750902800675080075090375C2
:1002380090F0AF90EF2450601424E0601424F06034
:10024800142470701B8508088509098013740480BC
:100258000674088002740C2509F509E43508F508C8
:10026800C3ED9432EC648094805012E59064F060A1
:100278000C7FE812037D0DBD00010C80E3750A00B8
:03028800750B01F2
:01028B002250
:10028C001201E8E50B450A60F7E50B6401450A70BD
:10029C0057AE08AF09FC7D961201C8AC06AD07E459
:1002AC0012010E7BCD7ACC79AC783F12000312018F
:1002BC00478F828E831202F5E4FDFCE582AE8378D3
:1002CC0002C333CE33CED8F9FFC3ED9FEE6480F872
:1002DC00EC648098500A12036B0DBD00010C80DB9E
:0802EC00E4F50AF50B120320F2
:0102F40022E7
:10034500C281E4FDFC12036B0DBD00010CED6432AE
:0B0355004C70F212032012028C80F8A2
:10000300EC4D6011E8497017ED33EC3304600DE4F7
:10001300FCFFFEFD22E933E8330470F80201B3125A
:10002300017E58046009E4CC24815006285009025B
:1000330001BD2840030201BAC0E0EB4A7044B98015
:1000430006D0E0FB0201A9EF4E701CBD8008EBFF58
:10005300EAFEE9FD80EBE98DF0A4FEE5F00200EC99
:10006300E9CDF9EAFEEBFFEF89F0A4FCE5F0CE89D8
:10007300F0A42EFFE435F0CD89F0A42DFEE435F095
:100083008067EF4E7005BD80D780C3EF8BF0A4ACC3
:10009300F0EE8BF0A42CFCE435F0F8EF8AF0A42CFE
:1000A300E5F038FCE433CB8DF0A42CFCE5F03BF811
:1000B300EE8AF0A42CFCE5F038F8E433CF89F0A401
:1000C3002CFCE5F038CF3400CE89F0A42FFFE5F007
:1000D3003EFEE433C98DF0A42EFEE5F039CD8AF05F
:1000E300A42FFFE5F03EFEE43DFD33D0E0FB5007D7
:1000F3000BBB000F0201BDEC2CFCEF33FFEE33FE14
:06010300ED33FD02019541
:1001090075F020800E75F010800575F0087D007E71
:10011900007F003392D530D5031201DAEC33401059
:10012900EF33FFEE33FEED33FDEC33FCD5F0ED227A
:0E013900E5F0247EA2D513CC92E7CDCEFF22B6
:10014700EDD2E7CD33EC3392D524814006E4FFFEB0
:10015700FDFC22FCE4CFCECDCC24E0501174FF800F
:10016700EDC3CC13CCCD13CDCE13CECF13CF0470AC
:07017700F030D5DE0201DAD1
:10017E00E9D2E7C933E833F892D5EDD2E7CD33ECC7
:07018E0033FC5002B2D52240
:10019500EC30E7100FBF000C0EBE00080DBD0004CB
:1001A5000BEB6014A2D5EB13FCED92E7FD2274FF77
:1001B500FCFDFEFF22E480F8A2D574FF13FC7D80D0
:0301C500E480EFE4
:1001C800EF8DF0A4A8F0CF8CF0A428CE8DF0A42E4B
:0201D800FE2205
:0E01DA00C3E49FFFE49EFEE49DFDE49CFC2236
:00000001FF
